{
  "contractName": "SCSE",
  "abi": [
    {
      "inputs": [],
      "payable": false,
      "stateMutability": "nonpayable",
      "type": "constructor"
    },
    {
      "anonymous": false,
      "inputs": [
        {
          "indexed": true,
          "internalType": "address",
          "name": "_owner",
          "type": "address"
        },
        {
          "indexed": true,
          "internalType": "address",
          "name": "_spender",
          "type": "address"
        },
        {
          "indexed": false,
          "internalType": "uint256",
          "name": "_value",
          "type": "uint256"
        },
        {
          "indexed": false,
          "internalType": "uint256",
          "name": "_currentApproval",
          "type": "uint256"
        }
      ],
      "name": "Approval",
      "type": "event"
    },
    {
      "anonymous": false,
      "inputs": [
        {
          "indexed": true,
          "internalType": "address",
          "name": "_from",
          "type": "address"
        },
        {
          "indexed": true,
          "internalType": "address",
          "name": "_to",
          "type": "address"
        },
        {
          "indexed": false,
          "internalType": "uint256",
          "name": "_value",
          "type": "uint256"
        }
      ],
      "name": "Transfer",
      "type": "event"
    },
    {
      "constant": true,
      "inputs": [
        {
          "internalType": "address",
          "name": "",
          "type": "address"
        },
        {
          "internalType": "address",
          "name": "",
          "type": "address"
        }
      ],
      "name": "allowed",
      "outputs": [
        {
          "internalType": "uint256",
          "name": "",
          "type": "uint256"
        }
      ],
      "payable": false,
      "stateMutability": "view",
      "type": "function"
    },
    {
      "constant": true,
      "inputs": [
        {
          "internalType": "address",
          "name": "",
          "type": "address"
        }
      ],
      "name": "balances",
      "outputs": [
        {
          "internalType": "uint256",
          "name": "",
          "type": "uint256"
        }
      ],
      "payable": false,
      "stateMutability": "view",
      "type": "function"
    },
    {
      "constant": true,
      "inputs": [],
      "name": "decimals",
      "outputs": [
        {
          "internalType": "uint8",
          "name": "",
          "type": "uint8"
        }
      ],
      "payable": false,
      "stateMutability": "view",
      "type": "function"
    },
    {
      "constant": true,
      "inputs": [],
      "name": "name",
      "outputs": [
        {
          "internalType": "string",
          "name": "",
          "type": "string"
        }
      ],
      "payable": false,
      "stateMutability": "view",
      "type": "function"
    },
    {
      "constant": true,
      "inputs": [],
      "name": "symbol",
      "outputs": [
        {
          "internalType": "string",
          "name": "",
          "type": "string"
        }
      ],
      "payable": false,
      "stateMutability": "view",
      "type": "function"
    },
    {
      "constant": true,
      "inputs": [],
      "name": "totalSupply",
      "outputs": [
        {
          "internalType": "uint256",
          "name": "",
          "type": "uint256"
        }
      ],
      "payable": false,
      "stateMutability": "view",
      "type": "function"
    },
    {
      "constant": false,
      "inputs": [
        {
          "internalType": "address",
          "name": "_to",
          "type": "address"
        },
        {
          "internalType": "uint256",
          "name": "_value",
          "type": "uint256"
        }
      ],
      "name": "transfer",
      "outputs": [
        {
          "internalType": "bool",
          "name": "success",
          "type": "bool"
        }
      ],
      "payable": false,
      "stateMutability": "nonpayable",
      "type": "function"
    },
    {
      "constant": false,
      "inputs": [
        {
          "internalType": "address",
          "name": "_from",
          "type": "address"
        },
        {
          "internalType": "address",
          "name": "_to",
          "type": "address"
        },
        {
          "internalType": "uint256",
          "name": "_value",
          "type": "uint256"
        }
      ],
      "name": "transferFrom",
      "outputs": [
        {
          "internalType": "bool",
          "name": "success",
          "type": "bool"
        }
      ],
      "payable": false,
      "stateMutability": "nonpayable",
      "type": "function"
    },
    {
      "constant": true,
      "inputs": [
        {
          "internalType": "address",
          "name": "_owner",
          "type": "address"
        }
      ],
      "name": "balanceOf",
      "outputs": [
        {
          "internalType": "uint256",
          "name": "balance",
          "type": "uint256"
        }
      ],
      "payable": false,
      "stateMutability": "view",
      "type": "function"
    },
    {
      "constant": false,
      "inputs": [
        {
          "internalType": "address",
          "name": "_owner",
          "type": "address"
        },
        {
          "internalType": "address",
          "name": "_spender",
          "type": "address"
        },
        {
          "internalType": "uint256",
          "name": "_value",
          "type": "uint256"
        }
      ],
      "name": "approve",
      "outputs": [
        {
          "internalType": "bool",
          "name": "success",
          "type": "bool"
        }
      ],
      "payable": false,
      "stateMutability": "nonpayable",
      "type": "function"
    },
    {
      "constant": false,
      "inputs": [
        {
          "internalType": "address",
          "name": "_owner",
          "type": "address"
        },
        {
          "internalType": "address",
          "name": "_spender",
          "type": "address"
        },
        {
          "internalType": "uint256",
          "name": "_value",
          "type": "uint256"
        }
      ],
      "name": "reduceAllowance",
      "outputs": [
        {
          "internalType": "uint256",
          "name": "currentAllowance",
          "type": "uint256"
        }
      ],
      "payable": false,
      "stateMutability": "nonpayable",
      "type": "function"
    },
    {
      "constant": true,
      "inputs": [
        {
          "internalType": "address",
          "name": "_owner",
          "type": "address"
        },
        {
          "internalType": "address",
          "name": "_spender",
          "type": "address"
        }
      ],
      "name": "allowance",
      "outputs": [
        {
          "internalType": "uint256",
          "name": "remaining",
          "type": "uint256"
        }
      ],
      "payable": false,
      "stateMutability": "view",
      "type": "function"
    }
  ],
  "bytecode": "0x608060405234801561001057600080fd5b5033600090815260016020908152604080832069d3c21bcecceda1000000908190559092558151808301909252600d8083527f4e5455205343534520436f696e0000000000000000000000000000000000000092909101918252610076916003916100cd565b506004805460ff19166012178155604080518082019091528181527f534353450000000000000000000000000000000000000000000000000000000060209091019081526100c791600591906100cd565b50610168565b828054600181600116156101000203166002900490600052602060002090601f016020900481019282601f1061010e57805160ff191683800117855561013b565b8280016001018555821561013b579182015b8281111561013b578251825591602001919060010190610120565b5061014792915061014b565b5090565b61016591905b808211156101475760008155600101610151565b90565b6109e5806101776000396000f3fe608060405234801561001057600080fd5b50600436106100d1576000357c01000000000000000000000000000000000000000000000000000000009004806370a082311161008e57806370a082311461022957806395d89b411461024f578063a9059cbb14610257578063c8d0ec0a14610283578063dd62ed3e146102b9578063e1f21c67146102e7576100d1565b806306fdde03146100d657806318160ddd1461015357806323b872dd1461016d57806327e235e3146101b7578063313ce567146101dd5780635c658165146101fb575b600080fd5b6100de61031d565b6040805160208082528351818301528351919283929083019185019080838360005b83811015610118578181015183820152602001610100565b50505050905090810190601f1680156101455780820380516001836020036101000a031916815260200191505b509250505060405180910390f35b61015b6103ab565b60408051918252519081900360200190f35b6101a36004803603606081101561018357600080fd5b50600160a060020a038135811691602081013590911690604001356103b1565b604080519115158252519081900360200190f35b61015b600480360360208110156101cd57600080fd5b5035600160a060020a031661052b565b6101e561053d565b6040805160ff9092168252519081900360200190f35b61015b6004803603604081101561021157600080fd5b50600160a060020a0381358116916020013516610546565b61015b6004803603602081101561023f57600080fd5b5035600160a060020a0316610563565b6100de61057e565b6101a36004803603604081101561026d57600080fd5b50600160a060020a0381351690602001356105d9565b61015b6004803603606081101561029957600080fd5b50600160a060020a038135811691602081013590911690604001356106a5565b61015b600480360360408110156102cf57600080fd5b50600160a060020a0381358116916020013516610772565b6101a3600480360360608110156102fd57600080fd5b50600160a060020a0381358116916020810135909116906040013561079d565b6003805460408051602060026001851615610100026000190190941693909304601f810184900484028201840190925281815292918301828280156103a35780601f10610378576101008083540402835291602001916103a3565b820191906000526020600020905b81548152906001019060200180831161038657829003601f168201915b505050505081565b60005481565b600160a060020a0383166000818152600260209081526040808320338452825280832054938352600190915281205490919083118015906103f25750828110155b6103fb57600080fd5b600160a060020a038416600090815260016020526040902054610424908463ffffffff61084716565b600160a060020a038086166000908152600160205260408082209390935590871681522054610459908463ffffffff6108c216565b600160a060020a0386166000908152600160205260409020556000198110156104d557600160a060020a03851660009081526002602090815260408083203384529091529020546104b0908463ffffffff6108c216565b600160a060020a03861660009081526002602090815260408083203384529091529020555b83600160a060020a031685600160a060020a03167fddf252ad1be2c89b69c2b068fc378daa952ba7f163c4a11628f55a4df523b3ef856040518082815260200191505060405180910390a3506001949350505050565b60016020526000908152604090205481565b60045460ff1681565b600260209081526000928352604080842090915290825290205481565b600160a060020a031660009081526001602052604090205490565b6005805460408051602060026001851615610100026000190190941693909304601f810184900484028201840190925281815292918301828280156103a35780601f10610378576101008083540402835291602001916103a3565b336000908152600160205260408120548211156105f557600080fd5b33600090815260016020526040902054610615908363ffffffff6108c216565b3360009081526001602052604080822092909255600160a060020a03851681522054610647908363ffffffff61084716565b600160a060020a0384166000818152600160209081526040918290209390935580518581529051919233927fddf252ad1be2c89b69c2b068fc378daa952ba7f163c4a11628f55a4df523b3ef9281900390910190a350600192915050565b600160a060020a0380841660009081526002602090815260408083209386168352929052908120546106dd908363ffffffff6108c216565b600160a060020a038581166000818152600260209081526040808320948916808452948252918290208590558151878152908101949094528051929391927fb3fd5071835887567a0671151121894ddccc2842f1d10bedad13e0d17cace9a79281900390910190a35050600160a060020a03918216600090815260026020908152604080832093909416825291909152205490565b600160a060020a03918216600090815260026020908152604080832093909416825291909152205490565b600160a060020a0380841660009081526002602090815260408083209386168352929052908120546107d5908363ffffffff61084716565b600160a060020a038581166000818152600260209081526040808320948916808452948252918290208590558151878152908101949094528051929391927fb3fd5071835887567a0671151121894ddccc2842f1d10bedad13e0d17cace9a79281900390910190a35060019392505050565b6000828201838110156108bb57604080517f08c379a000000000000000000000000000000000000000000000000000000000815260206004820152601b60248201527f536166654d6174683a206164646974696f6e206f766572666c6f770000000000604482015290519081900360640190fd5b9392505050565b60006108bb83836040518060400160405280601e81526020017f536166654d6174683a207375627472616374696f6e206f766572666c6f770000815250600081848411156109a8576040517f08c379a00000000000000000000000000000000000000000000000000000000081526004018080602001828103825283818151815260200191508051906020019080838360005b8381101561096d578181015183820152602001610955565b50505050905090810190601f16801561099a5780820380516001836020036101000a031916815260200191505b509250505060405180910390fd5b50505090039056fea265627a7a72315820aefdfba3e925ff89832aea1632632008a415090cb02986a22fa9a598e7f9098f64736f6c63430005100032",
  "source": "pragma solidity >=0.4.22 <0.8.0;\r\nimport \"./EIP20Interface.sol\";\r\nimport \"./SafeMath.sol\";\r\n\r\ncontract SCSE is EIP20Interface {\r\n    using SafeMath for uint256;\r\n\r\n    uint256 private constant MAX_UINT256 = 2**256 - 1;\r\n    mapping(address => uint256) public balances;\r\n    mapping(address => mapping(address => uint256)) public allowed;\r\n\r\n    string public name; //fancy name: eg Simon Bucks\r\n    uint8 public decimals; //How many decimals to show.\r\n    string public symbol; //An identifier: eg SBX\r\n\r\n    constructor() public // uint256 _initialAmount,\r\n    // string memory _tokenName,\r\n    // uint8 _decimalUnits,\r\n    // string memory _tokenSymbol\r\n    {\r\n        // balances[msg.sender] = _initialAmount;               // Give the creator all initial tokens\r\n        // totalSupply = _initialAmount;                        // Update total supply\r\n        // name = _tokenName;                                   // Set the name for display purposes\r\n        // decimals = _decimalUnits;                            // Amount of decimals for display purposes\r\n        // symbol = _tokenSymbol;                               // Set the symbol for display purposes\r\n        balances[msg.sender] = 1000000000000000000000000; // Give the creator all initial tokens\r\n        totalSupply = 1000000000000000000000000; // Update total supply\r\n        // 1,000,000,000,000,000,000 mSCSE = 1 SCSE\r\n        // current total supply = 1,000,000 SCSE\r\n        name = \"NTU SCSE Coin\"; // Set the name for display purposes\r\n        decimals = 18; // Amount of decimals for display purposes\r\n        symbol = \"SCSE\";\r\n    }\r\n\r\n    function transfer(address _to, uint256 _value)\r\n        public\r\n        returns (bool success)\r\n    {\r\n        require(balances[msg.sender] >= _value);\r\n        balances[msg.sender] = balances[msg.sender].sub(_value);\r\n        balances[_to] = balances[_to].add(_value);\r\n        emit Transfer(msg.sender, _to, _value); //solhint-disable-line indent, no-unused-vars\r\n        return true;\r\n    }\r\n\r\n    function transferFrom(\r\n        address _from,\r\n        address _to,\r\n        uint256 _value\r\n    ) public returns (bool success) {\r\n        uint256 allowance = allowed[_from][msg.sender];\r\n        require(balances[_from] >= _value && allowance >= _value);\r\n        balances[_to] = balances[_to].add(_value);\r\n        balances[_from] = balances[_from].sub(_value);\r\n        if (allowance < MAX_UINT256) {\r\n            allowed[_from][msg.sender] = allowed[_from][msg.sender].sub(_value);\r\n        }\r\n        emit Transfer(_from, _to, _value); //solhint-disable-line indent, no-unused-vars\r\n        return true;\r\n    }\r\n\r\n    function balanceOf(address _owner) public view returns (uint256 balance) {\r\n        return balances[_owner];\r\n    }\r\n\r\n    function approve(\r\n        address _owner,\r\n        address _spender,\r\n        uint256 _value\r\n    ) public returns (bool success) {\r\n        allowed[_owner][_spender] = allowed[_owner][_spender].add(_value);\r\n        emit Approval(_owner, _spender, _value, allowed[_owner][_spender]); //solhint-disable-line indent, no-unused-vars\r\n        return true;\r\n    }\r\n\r\n    function reduceAllowance(\r\n        address _owner,\r\n        address _spender,\r\n        uint256 _value\r\n    ) public returns (uint256 currentAllowance) {\r\n        allowed[_owner][_spender] = allowed[_owner][_spender].sub(_value);\r\n        emit Approval(_owner, _spender, _value, allowed[_owner][_spender]);\r\n        return allowed[_owner][_spender];\r\n    }\r\n\r\n    function allowance(address _owner, address _spender)\r\n        public\r\n        view\r\n        returns (uint256 remaining)\r\n    {\r\n        return allowed[_owner][_spender];\r\n    }\r\n}\r\n",
  "sourcePath": "D:/Downloads HDD/Coding/Github/Something Funky Is Nice/contracts/SCSE.sol",
  "compiler": {
    "name": "solc",
    "version": "0.5.16+commit.9c3226ce.Emscripten.clang"
  },
  "schemaVersion": "3.2.5",
  "updatedAt": "2020-10-31T15:16:15.231Z",
  "networkType": "ethereum",
  "devdoc": {
    "methods": {}
  },
  "userdoc": {
    "methods": {}
  }
}