{
  "contractName": "WETH",
  "abi": [
    {
      "inputs": [],
      "payable": false,
      "stateMutability": "nonpayable",
      "type": "constructor"
    },
    {
      "anonymous": false,
      "inputs": [
        {
          "indexed": true,
          "internalType": "address",
          "name": "_owner",
          "type": "address"
        },
        {
          "indexed": true,
          "internalType": "address",
          "name": "_spender",
          "type": "address"
        },
        {
          "indexed": false,
          "internalType": "uint256",
          "name": "_value",
          "type": "uint256"
        },
        {
          "indexed": false,
          "internalType": "uint256",
          "name": "_currentApproval",
          "type": "uint256"
        }
      ],
      "name": "Approval",
      "type": "event"
    },
    {
      "anonymous": false,
      "inputs": [
        {
          "indexed": true,
          "internalType": "address",
          "name": "_from",
          "type": "address"
        },
        {
          "indexed": true,
          "internalType": "address",
          "name": "_to",
          "type": "address"
        },
        {
          "indexed": false,
          "internalType": "uint256",
          "name": "_value",
          "type": "uint256"
        }
      ],
      "name": "Transfer",
      "type": "event"
    },
    {
      "constant": true,
      "inputs": [],
      "name": "decimals",
      "outputs": [
        {
          "internalType": "uint8",
          "name": "",
          "type": "uint8"
        }
      ],
      "payable": false,
      "stateMutability": "view",
      "type": "function"
    },
    {
      "constant": true,
      "inputs": [],
      "name": "name",
      "outputs": [
        {
          "internalType": "string",
          "name": "",
          "type": "string"
        }
      ],
      "payable": false,
      "stateMutability": "view",
      "type": "function"
    },
    {
      "constant": true,
      "inputs": [],
      "name": "symbol",
      "outputs": [
        {
          "internalType": "string",
          "name": "",
          "type": "string"
        }
      ],
      "payable": false,
      "stateMutability": "view",
      "type": "function"
    },
    {
      "constant": true,
      "inputs": [],
      "name": "totalSupply",
      "outputs": [
        {
          "internalType": "uint256",
          "name": "",
          "type": "uint256"
        }
      ],
      "payable": false,
      "stateMutability": "view",
      "type": "function"
    },
    {
      "constant": false,
      "inputs": [
        {
          "internalType": "address",
          "name": "_to",
          "type": "address"
        },
        {
          "internalType": "uint256",
          "name": "_value",
          "type": "uint256"
        }
      ],
      "name": "transfer",
      "outputs": [
        {
          "internalType": "bool",
          "name": "success",
          "type": "bool"
        }
      ],
      "payable": false,
      "stateMutability": "nonpayable",
      "type": "function"
    },
    {
      "constant": false,
      "inputs": [
        {
          "internalType": "address",
          "name": "_from",
          "type": "address"
        },
        {
          "internalType": "address",
          "name": "_to",
          "type": "address"
        },
        {
          "internalType": "uint256",
          "name": "_value",
          "type": "uint256"
        }
      ],
      "name": "transferFrom",
      "outputs": [
        {
          "internalType": "bool",
          "name": "success",
          "type": "bool"
        }
      ],
      "payable": false,
      "stateMutability": "nonpayable",
      "type": "function"
    },
    {
      "constant": true,
      "inputs": [
        {
          "internalType": "address",
          "name": "_owner",
          "type": "address"
        }
      ],
      "name": "balanceOf",
      "outputs": [
        {
          "internalType": "uint256",
          "name": "balance",
          "type": "uint256"
        }
      ],
      "payable": false,
      "stateMutability": "view",
      "type": "function"
    },
    {
      "constant": false,
      "inputs": [
        {
          "internalType": "address",
          "name": "_owner",
          "type": "address"
        },
        {
          "internalType": "address",
          "name": "_spender",
          "type": "address"
        },
        {
          "internalType": "uint256",
          "name": "_value",
          "type": "uint256"
        }
      ],
      "name": "approve",
      "outputs": [
        {
          "internalType": "bool",
          "name": "success",
          "type": "bool"
        }
      ],
      "payable": false,
      "stateMutability": "nonpayable",
      "type": "function"
    },
    {
      "constant": false,
      "inputs": [
        {
          "internalType": "address",
          "name": "_owner",
          "type": "address"
        },
        {
          "internalType": "address",
          "name": "_spender",
          "type": "address"
        },
        {
          "internalType": "uint256",
          "name": "_value",
          "type": "uint256"
        }
      ],
      "name": "reduceAllowance",
      "outputs": [
        {
          "internalType": "uint256",
          "name": "currentAllowance",
          "type": "uint256"
        }
      ],
      "payable": false,
      "stateMutability": "nonpayable",
      "type": "function"
    },
    {
      "constant": true,
      "inputs": [
        {
          "internalType": "address",
          "name": "_owner",
          "type": "address"
        },
        {
          "internalType": "address",
          "name": "_spender",
          "type": "address"
        }
      ],
      "name": "allowance",
      "outputs": [
        {
          "internalType": "uint256",
          "name": "remaining",
          "type": "uint256"
        }
      ],
      "payable": false,
      "stateMutability": "view",
      "type": "function"
    },
    {
      "constant": false,
      "inputs": [
        {
          "internalType": "address",
          "name": "sender",
          "type": "address"
        }
      ],
      "name": "mint",
      "outputs": [],
      "payable": true,
      "stateMutability": "payable",
      "type": "function"
    },
    {
      "constant": false,
      "inputs": [
        {
          "internalType": "address payable",
          "name": "sender",
          "type": "address"
        },
        {
          "internalType": "uint256",
          "name": "amt",
          "type": "uint256"
        }
      ],
      "name": "burn",
      "outputs": [],
      "payable": false,
      "stateMutability": "nonpayable",
      "type": "function"
    }
  ],
  "bytecode": "0x608060405234801561001057600080fd5b506040805180820190915260108082527f5772617070656420457468657265756d000000000000000000000000000000006020909201918252610055916003916100ac565b506004805460ff19166012178155604080518082019091528181527f574554480000000000000000000000000000000000000000000000000000000060209091019081526100a691600591906100ac565b50610147565b828054600181600116156101000203166002900490600052602060002090601f016020900481019282601f106100ed57805160ff191683800117855561011a565b8280016001018555821561011a579182015b8281111561011a5782518255916020019190600101906100ff565b5061012692915061012a565b5090565b61014491905b808211156101265760008155600101610130565b90565b610aa9806101566000396000f3fe6080604052600436106100c4576000357c01000000000000000000000000000000000000000000000000000000009004806395d89b411161008157806395d89b41146102575780639dc29fac1461026c578063a9059cbb146102a5578063c8d0ec0a146102de578063dd62ed3e14610321578063e1f21c671461035c576100c4565b806306fdde03146100c957806318160ddd1461015357806323b872dd1461017a578063313ce567146101d15780636a627842146101fc57806370a0823114610224575b600080fd5b3480156100d557600080fd5b506100de61039f565b6040805160208082528351818301528351919283929083019185019080838360005b83811015610118578181015183820152602001610100565b50505050905090810190601f1680156101455780820380516001836020036101000a031916815260200191505b509250505060405180910390f35b34801561015f57600080fd5b5061016861042d565b60408051918252519081900360200190f35b34801561018657600080fd5b506101bd6004803603606081101561019d57600080fd5b50600160a060020a03813581169160208101359091169060400135610433565b604080519115158252519081900360200190f35b3480156101dd57600080fd5b506101e6610535565b6040805160ff9092168252519081900360200190f35b6102226004803603602081101561021257600080fd5b5035600160a060020a031661053e565b005b34801561023057600080fd5b506101686004803603602081101561024757600080fd5b5035600160a060020a0316610598565b34801561026357600080fd5b506100de6105b3565b34801561027857600080fd5b506102226004803603604081101561028f57600080fd5b50600160a060020a03813516906020013561060e565b3480156102b157600080fd5b506101bd600480360360408110156102c857600080fd5b50600160a060020a0381351690602001356106da565b3480156102ea57600080fd5b506101686004803603606081101561030157600080fd5b50600160a060020a03813581169160208101359091169060400135610764565b34801561032d57600080fd5b506101686004803603604081101561034457600080fd5b50600160a060020a0381358116916020013516610831565b34801561036857600080fd5b506101bd6004803603606081101561037f57600080fd5b50600160a060020a0381358116916020810135909116906040013561085c565b6003805460408051602060026001851615610100026000190190941693909304601f810184900484028201840190925281815292918301828280156104255780601f106103fa57610100808354040283529160200191610425565b820191906000526020600020905b81548152906001019060200180831161040857829003601f168201915b505050505081565b60005481565b600160a060020a0383166000818152600260209081526040808320338452825280832054938352600190915281205490919083118015906104745750828110155b61047d57600080fd5b600160a060020a03808516600090815260016020526040808220805487019055918716815220805484900390556000198110156104df57600160a060020a03851660009081526002602090815260408083203384529091529020805484900390555b83600160a060020a031685600160a060020a03167fddf252ad1be2c89b69c2b068fc378daa952ba7f163c4a11628f55a4df523b3ef856040518082815260200191505060405180910390a3506001949350505050565b60045460ff1681565b600054610551903463ffffffff61090616565b6000908155600160a060020a03821681526001602052604090205461057c903463ffffffff61090616565b600160a060020a03909116600090815260016020526040902055565b600160a060020a031660009081526001602052604090205490565b6005805460408051602060026001851615610100026000190190941693909304601f810184900484028201840190925281815292918301828280156104255780601f106103fa57610100808354040283529160200191610425565b604051600160a060020a0383169082156108fc029083906000818181858888f19350505050158015610644573d6000803e3d6000fd5b50604080518082018252601f81527f45524332303a204275726e20616d7420657863656564732062616c616e636500602080830191909152600160a060020a0385166000908152600190915291909120546106a691839063ffffffff61098116565b600160a060020a038316600090815260016020526040812091909155546106d3908263ffffffff610a3216565b6000555050565b336000908152600160205260408120548211156106f657600080fd5b33600081815260016020908152604080832080548790039055600160a060020a03871680845292819020805487019055805186815290519293927fddf252ad1be2c89b69c2b068fc378daa952ba7f163c4a11628f55a4df523b3ef929181900390910190a350600192915050565b600160a060020a03808416600090815260026020908152604080832093861683529290529081205461079c908363ffffffff610a3216565b600160a060020a038581166000818152600260209081526040808320948916808452948252918290208590558151878152908101949094528051929391927fb3fd5071835887567a0671151121894ddccc2842f1d10bedad13e0d17cace9a79281900390910190a35050600160a060020a03918216600090815260026020908152604080832093909416825291909152205490565b600160a060020a03918216600090815260026020908152604080832093909416825291909152205490565b600160a060020a038084166000908152600260209081526040808320938616835292905290812054610894908363ffffffff61090616565b600160a060020a038581166000818152600260209081526040808320948916808452948252918290208590558151878152908101949094528051929391927fb3fd5071835887567a0671151121894ddccc2842f1d10bedad13e0d17cace9a79281900390910190a35060019392505050565b60008282018381101561097a57604080517f08c379a000000000000000000000000000000000000000000000000000000000815260206004820152601b60248201527f536166654d6174683a206164646974696f6e206f766572666c6f770000000000604482015290519081900360640190fd5b9392505050565b60008184841115610a2a576040517f08c379a00000000000000000000000000000000000000000000000000000000081526004018080602001828103825283818151815260200191508051906020019080838360005b838110156109ef5781810151838201526020016109d7565b50505050905090810190601f168015610a1c5780820380516001836020036101000a031916815260200191505b509250505060405180910390fd5b505050900390565b600061097a83836040518060400160405280601e81526020017f536166654d6174683a207375627472616374696f6e206f766572666c6f77000081525061098156fea265627a7a72315820cecac2b05d44d0fb76a154ecdc8d5c4ae998e0dfc80251f8440d4644316ab84c64736f6c63430005100032",
  "source": "/*\r\nImplements EIP20 token standard: https://github.com/ethereum/EIPs/blob/master/EIPS/eip-20.md\r\n.*/\r\n\r\npragma solidity >=0.4.22 <0.8.0;\r\nimport \"./EIP20Interface.sol\";\r\nimport \"./SafeMath.sol\";\r\n\r\ncontract WETH is EIP20Interface {\r\n    using SafeMath for uint256;\r\n\r\n    uint256 private constant MAX_UINT256 = 2**256 - 1;\r\n    mapping(address => uint256) private balances;\r\n    mapping(address => mapping(address => uint256)) private allowed;\r\n\r\n    string public name; //fancy name: eg Simon Bucks\r\n    uint8 public decimals; //How many decimals to show.\r\n    string public symbol; //An identifier: eg SBX\r\n\r\n    uint256 private _totalSupply;\r\n\r\n    constructor() public // uint256 _initialAmount,\r\n    // string memory _tokenName,\r\n    // uint8 _decimalUnits,\r\n    // string memory _tokenSymbol\r\n    {\r\n        // balances[msg.sender] = _initialAmount;               // Give the creator all initial tokens\r\n        // totalSupply = _initialAmount;                        // Update total supply\r\n        // name = _tokenName;                                   // Set the name for display purposes\r\n        // decimals = _decimalUnits;                            // Amount of decimals for display purposes\r\n        // symbol = _tokenSymbol;                               // Set the symbol for display purposes\r\n        //balances[msg.sender] = 1000000000000000000000000; // Give the creator all initial tokens\r\n        //totalSupply = 1000000000000000000000000; // Update total supply\r\n        // 1,000,000,000,000,000,000 mSCSE = 1 SCSE\r\n        // current total supply = 1,000,000 SCSE\r\n        name = \"Wrapped Ethereum\"; // Set the name for display purposes\r\n        decimals = 18; // Amount of decimals for display purposes\r\n        symbol = \"WETH\";\r\n    }\r\n\r\n    function transfer(address _to, uint256 _value)\r\n        public\r\n        returns (bool success)\r\n    {\r\n        require(balances[msg.sender] >= _value);\r\n        balances[msg.sender] -= _value;\r\n        balances[_to] += _value;\r\n        emit Transfer(msg.sender, _to, _value); //solhint-disable-line indent, no-unused-vars\r\n        return true;\r\n    }\r\n\r\n    function transferFrom(\r\n        address _from,\r\n        address _to,\r\n        uint256 _value\r\n    ) public returns (bool success) {\r\n        uint256 allowance = allowed[_from][msg.sender];\r\n        require(balances[_from] >= _value && allowance >= _value);\r\n        balances[_to] += _value;\r\n        balances[_from] -= _value;\r\n        if (allowance < MAX_UINT256) {\r\n            allowed[_from][msg.sender] -= _value;\r\n        }\r\n        emit Transfer(_from, _to, _value); //solhint-disable-line indent, no-unused-vars\r\n        return true;\r\n    }\r\n\r\n    function balanceOf(address _owner) public view returns (uint256 balance) {\r\n        return balances[_owner];\r\n    }\r\n\r\n    function approve(\r\n        address _owner,\r\n        address _spender,\r\n        uint256 _value\r\n    ) public returns (bool success) {\r\n        allowed[_owner][_spender] = allowed[_owner][_spender].add(_value);\r\n        emit Approval(_owner, _spender, _value, allowed[_owner][_spender]); //solhint-disable-line indent, no-unused-vars\r\n        return true;\r\n    }\r\n\r\n    function reduceAllowance(\r\n        address _owner,\r\n        address _spender,\r\n        uint256 _value\r\n    ) public returns (uint256 currentAllowance) {\r\n        allowed[_owner][_spender] = allowed[_owner][_spender].sub(_value);\r\n        emit Approval(_owner, _spender, _value, allowed[_owner][_spender]);\r\n        return allowed[_owner][_spender];\r\n    }\r\n\r\n    function allowance(address _owner, address _spender)\r\n        public\r\n        view\r\n        returns (uint256 remaining)\r\n    {\r\n        return allowed[_owner][_spender];\r\n    }\r\n\r\n    function mint(address sender) external payable {\r\n        totalSupply = totalSupply.add(msg.value);\r\n        balances[sender] = balances[sender].add(msg.value);\r\n    }\r\n\r\n    function burn(address payable sender, uint256 amt) external {\r\n        sender.transfer(amt);\r\n\r\n        balances[sender] = balances[sender].sub(\r\n            amt,\r\n            \"ERC20: Burn amt exceeds balance\"\r\n        );\r\n        totalSupply = totalSupply.sub(amt);\r\n    }\r\n}\r\n",
  "sourcePath": "C:/Users/huang/OneDrive/Documents/NTU Materials/CZ4153 ref proj/CZ4153-Decentralized-Exchange-Project/contracts/WETH.sol",
  "compiler": {
    "name": "solc",
    "version": "0.5.16+commit.9c3226ce.Emscripten.clang"
  },
  "schemaVersion": "3.2.5",
  "updatedAt": "2023-10-29T09:34:05.879Z",
  "networkType": "ethereum",
  "devdoc": {
    "methods": {}
  },
  "userdoc": {
    "methods": {}
  }
}